{
    "_format": "hh-sol-artifact-1",
    "contractName": "EvidenceStorage",
    "sourceName": "contracts/EvidenceStorage.sol",
    "abi": [
        {
            "inputs": [],
            "stateMutability": "nonpayable",
            "type": "constructor"
        },
        {
            "inputs": [],
            "name": "AccessControlBadConfirmation",
            "type": "error"
        },
        {
            "inputs": [
                {
                    "internalType": "address",
                    "name": "account",
                    "type": "address"
                },
                {
                    "internalType": "bytes32",
                    "name": "neededRole",
                    "type": "bytes32"
                }
            ],
            "name": "AccessControlUnauthorizedAccount",
            "type": "error"
        },
        {
            "anonymous": false,
            "inputs": [
                {
                    "indexed": true,
                    "internalType": "bytes32",
                    "name": "role",
                    "type": "bytes32"
                },
                {
                    "indexed": true,
                    "internalType": "bytes32",
                    "name": "previousAdminRole",
                    "type": "bytes32"
                },
                {
                    "indexed": true,
                    "internalType": "bytes32",
                    "name": "newAdminRole",
                    "type": "bytes32"
                }
            ],
            "name": "RoleAdminChanged",
            "type": "event"
        },
        {
            "anonymous": false,
            "inputs": [
                {
                    "indexed": true,
                    "internalType": "bytes32",
                    "name": "role",
                    "type": "bytes32"
                },
                {
                    "indexed": true,
                    "internalType": "address",
                    "name": "account",
                    "type": "address"
                },
                {
                    "indexed": true,
                    "internalType": "address",
                    "name": "sender",
                    "type": "address"
                }
            ],
            "name": "RoleGranted",
            "type": "event"
        },
        {
            "anonymous": false,
            "inputs": [
                {
                    "indexed": true,
                    "internalType": "bytes32",
                    "name": "role",
                    "type": "bytes32"
                },
                {
                    "indexed": true,
                    "internalType": "address",
                    "name": "account",
                    "type": "address"
                },
                {
                    "indexed": true,
                    "internalType": "address",
                    "name": "sender",
                    "type": "address"
                }
            ],
            "name": "RoleRevoked",
            "type": "event"
        },
        {
            "inputs": [],
            "name": "DEFAULT_ADMIN_ROLE",
            "outputs": [
                {
                    "internalType": "bytes32",
                    "name": "",
                    "type": "bytes32"
                }
            ],
            "stateMutability": "view",
            "type": "function"
        },
        {
            "inputs": [],
            "name": "JUDGE_ROLE",
            "outputs": [
                {
                    "internalType": "bytes32",
                    "name": "",
                    "type": "bytes32"
                }
            ],
            "stateMutability": "view",
            "type": "function"
        },
        {
            "inputs": [],
            "name": "POLICE_ROLE",
            "outputs": [
                {
                    "internalType": "bytes32",
                    "name": "",
                    "type": "bytes32"
                }
            ],
            "stateMutability": "view",
            "type": "function"
        },
        {
            "inputs": [
                {
                    "internalType": "address",
                    "name": "account",
                    "type": "address"
                }
            ],
            "name": "addPoliceRole",
            "outputs": [],
            "stateMutability": "nonpayable",
            "type": "function"
        },
        {
            "inputs": [
                {
                    "internalType": "uint256",
                    "name": "_evidenceId",
                    "type": "uint256"
                },
                {
                    "internalType": "address",
                    "name": "_user",
                    "type": "address"
                }
            ],
            "name": "approveEvidence",
            "outputs": [],
            "stateMutability": "nonpayable",
            "type": "function"
        },
        {
            "inputs": [
                {
                    "internalType": "uint256",
                    "name": "",
                    "type": "uint256"
                }
            ],
            "name": "evidences",
            "outputs": [
                {
                    "internalType": "string",
                    "name": "ipfsHash",
                    "type": "string"
                },
                {
                    "internalType": "address",
                    "name": "uploader",
                    "type": "address"
                }
            ],
            "stateMutability": "view",
            "type": "function"
        },
        {
            "inputs": [
                {
                    "internalType": "uint256",
                    "name": "_evidenceId",
                    "type": "uint256"
                }
            ],
            "name": "getEvidence",
            "outputs": [
                {
                    "internalType": "string",
                    "name": "",
                    "type": "string"
                },
                {
                    "internalType": "address",
                    "name": "",
                    "type": "address"
                }
            ],
            "stateMutability": "view",
            "type": "function"
        },
        {
            "inputs": [
                {
                    "internalType": "address",
                    "name": "user",
                    "type": "address"
                }
            ],
            "name": "getRole",
            "outputs": [
                {
                    "internalType": "string",
                    "name": "",
                    "type": "string"
                }
            ],
            "stateMutability": "view",
            "type": "function"
        },
        {
            "inputs": [
                {
                    "internalType": "bytes32",
                    "name": "role",
                    "type": "bytes32"
                }
            ],
            "name": "getRoleAdmin",
            "outputs": [
                {
                    "internalType": "bytes32",
                    "name": "",
                    "type": "bytes32"
                }
            ],
            "stateMutability": "view",
            "type": "function"
        },
        {
            "inputs": [
                {
                    "internalType": "bytes32",
                    "name": "role",
                    "type": "bytes32"
                },
                {
                    "internalType": "address",
                    "name": "account",
                    "type": "address"
                }
            ],
            "name": "grantRole",
            "outputs": [],
            "stateMutability": "nonpayable",
            "type": "function"
        },
        {
            "inputs": [
                {
                    "internalType": "bytes32",
                    "name": "role",
                    "type": "bytes32"
                },
                {
                    "internalType": "address",
                    "name": "account",
                    "type": "address"
                }
            ],
            "name": "hasRole",
            "outputs": [
                {
                    "internalType": "bool",
                    "name": "",
                    "type": "bool"
                }
            ],
            "stateMutability": "view",
            "type": "function"
        },
        {
            "inputs": [
                {
                    "internalType": "bytes32",
                    "name": "role",
                    "type": "bytes32"
                },
                {
                    "internalType": "address",
                    "name": "callerConfirmation",
                    "type": "address"
                }
            ],
            "name": "renounceRole",
            "outputs": [],
            "stateMutability": "nonpayable",
            "type": "function"
        },
        {
            "inputs": [
                {
                    "internalType": "bytes32",
                    "name": "role",
                    "type": "bytes32"
                },
                {
                    "internalType": "address",
                    "name": "account",
                    "type": "address"
                }
            ],
            "name": "revokeRole",
            "outputs": [],
            "stateMutability": "nonpayable",
            "type": "function"
        },
        {
            "inputs": [
                {
                    "internalType": "bytes4",
                    "name": "interfaceId",
                    "type": "bytes4"
                }
            ],
            "name": "supportsInterface",
            "outputs": [
                {
                    "internalType": "bool",
                    "name": "",
                    "type": "bool"
                }
            ],
            "stateMutability": "view",
            "type": "function"
        },
        {
            "inputs": [
                {
                    "internalType": "uint256",
                    "name": "_evidenceId",
                    "type": "uint256"
                },
                {
                    "internalType": "string",
                    "name": "_ipfsHash",
                    "type": "string"
                }
            ],
            "name": "uploadEvidence",
            "outputs": [],
            "stateMutability": "nonpayable",
            "type": "function"
        }
    ],
    "bytecode": "0x60806040523480156200001157600080fd5b50620000276000801b336200006160201b60201c565b506200005a7f9c4e6fd68fbdec6e3075ec7bfba710532af019aea93f5f59ebfe5a9d1a0b894e336200006160201b60201c565b50620001d6565b60006200007583836200016460201b60201c565b6200015957600160008085815260200190815260200160002060000160008473ffffffffffffffffffffffffffffffffffffffff1673ffffffffffffffffffffffffffffffffffffffff16815260200190815260200160002060006101000a81548160ff021916908315150217905550620000f5620001ce60201b60201c565b73ffffffffffffffffffffffffffffffffffffffff168273ffffffffffffffffffffffffffffffffffffffff16847f2f8788117e7eff1d82e926ec794901d17c78024a50270940304540a733656f0d60405160405180910390a4600190506200015e565b600090505b92915050565b600080600084815260200190815260200160002060000160008373ffffffffffffffffffffffffffffffffffffffff1673ffffffffffffffffffffffffffffffffffffffff16815260200190815260200160002060009054906101000a900460ff16905092915050565b600033905090565b6116ed80620001e66000396000f3fe608060405234801561001057600080fd5b50600436106100f55760003560e01c8063718643e611610097578063d547741f11610066578063d547741f146102ac578063dc446c88146102c8578063e0e47588146102e4578063e34f043d14610302576100f5565b8063718643e61461021157806391d148541461022d578063a217fddf1461025d578063c956f1431461027b576100f5565b80632e4546cd116100d35780632e4546cd146101785780632f2ff15d146101a957806336568abe146101c557806344276733146101e1576100f5565b806301ffc9a7146100fa5780632087a00e1461012a578063248a9ca314610148575b600080fd5b610114600480360381019061010f9190610df8565b61031e565b6040516101219190610e40565b60405180910390f35b610132610398565b60405161013f9190610e74565b60405180910390f35b610162600480360381019061015d9190610ebb565b6103bc565b60405161016f9190610e74565b60405180910390f35b610192600480360381019061018d9190610f1e565b6103db565b6040516101a092919061101c565b60405180910390f35b6101c360048036038101906101be9190611078565b6104a7565b005b6101df60048036038101906101da9190611078565b6104c9565b005b6101fb60048036038101906101f691906110b8565b610544565b60405161020891906110e5565b60405180910390f35b61022b6004803603810190610226919061123c565b61065c565b005b61024760048036038101906102429190611078565b610727565b6040516102549190610e40565b60405180910390f35b610265610791565b6040516102729190610e74565b60405180910390f35b61029560048036038101906102909190610f1e565b610798565b6040516102a392919061101c565b60405180910390f35b6102c660048036038101906102c19190611078565b6108ff565b005b6102e260048036038101906102dd9190611298565b610921565b005b6102ec610a55565b6040516102f99190610e74565b60405180910390f35b61031c600480360381019061031791906110b8565b610a79565b005b60007f7965db0b000000000000000000000000000000000000000000000000000000007bffffffffffffffffffffffffffffffffffffffffffffffffffffffff1916827bffffffffffffffffffffffffffffffffffffffffffffffffffffffff19161480610391575061039082610ad2565b5b9050919050565b7f3c897272fb756004d8a8588422a9ce6e04768b2d705bbde7a87ceb35e9b9c5d981565b6000806000838152602001908152602001600020600101549050919050565b60016020528060005260406000206000915090508060000180546103fe90611307565b80601f016020809104026020016040519081016040528092919081815260200182805461042a90611307565b80156104775780601f1061044c57610100808354040283529160200191610477565b820191906000526020600020905b81548152906001019060200180831161045a57829003601f168201915b5050505050908060010160009054906101000a900473ffffffffffffffffffffffffffffffffffffffff16905082565b6104b0826103bc565b6104b981610b3c565b6104c38383610b50565b50505050565b6104d1610c41565b73ffffffffffffffffffffffffffffffffffffffff168173ffffffffffffffffffffffffffffffffffffffff1614610535576040517f6697b23200000000000000000000000000000000000000000000000000000000815260040160405180910390fd5b61053f8282610c49565b505050565b60606105707f9c4e6fd68fbdec6e3075ec7bfba710532af019aea93f5f59ebfe5a9d1a0b894e83610727565b156105b2576040518060400160405280600581526020017f6a756467650000000000000000000000000000000000000000000000000000008152509050610657565b6105dc7f3c897272fb756004d8a8588422a9ce6e04768b2d705bbde7a87ceb35e9b9c5d983610727565b1561061e576040518060400160405280600681526020017f706f6c69636500000000000000000000000000000000000000000000000000008152509050610657565b6040518060400160405280600481526020017f6e6f6e650000000000000000000000000000000000000000000000000000000081525090505b919050565b60006001600084815260200190815260200160002090508181600001908161068491906114e4565b50338160010160006101000a81548173ffffffffffffffffffffffffffffffffffffffff021916908373ffffffffffffffffffffffffffffffffffffffff16021790555060018160020160003373ffffffffffffffffffffffffffffffffffffffff1673ffffffffffffffffffffffffffffffffffffffff16815260200190815260200160002060006101000a81548160ff021916908315150217905550505050565b600080600084815260200190815260200160002060000160008373ffffffffffffffffffffffffffffffffffffffff1673ffffffffffffffffffffffffffffffffffffffff16815260200190815260200160002060009054906101000a900460ff16905092915050565b6000801b81565b60606000806001600085815260200190815260200160002090508060020160003373ffffffffffffffffffffffffffffffffffffffff1673ffffffffffffffffffffffffffffffffffffffff16815260200190815260200160002060009054906101000a900460ff16610840576040517f08c379a000000000000000000000000000000000000000000000000000000000815260040161083790611602565b60405180910390fd5b806000018160010160009054906101000a900473ffffffffffffffffffffffffffffffffffffffff1681805461087590611307565b80601f01602080910402602001604051908101604052809291908181526020018280546108a190611307565b80156108ee5780601f106108c3576101008083540402835291602001916108ee565b820191906000526020600020905b8154815290600101906020018083116108d157829003601f168201915b505050505091509250925050915091565b610908826103bc565b61091181610b3c565b61091b8383610c49565b50505050565b7f9c4e6fd68fbdec6e3075ec7bfba710532af019aea93f5f59ebfe5a9d1a0b894e61094b81610b3c565b6000600160008581526020019081526020016000209050600073ffffffffffffffffffffffffffffffffffffffff168160010160009054906101000a900473ffffffffffffffffffffffffffffffffffffffff1673ffffffffffffffffffffffffffffffffffffffff16036109f5576040517f08c379a00000000000000000000000000000000000000000000000000000000081526004016109ec9061166e565b60405180910390fd5b60018160020160008573ffffffffffffffffffffffffffffffffffffffff1673ffffffffffffffffffffffffffffffffffffffff16815260200190815260200160002060006101000a81548160ff02191690831515021790555050505050565b7f9c4e6fd68fbdec6e3075ec7bfba710532af019aea93f5f59ebfe5a9d1a0b894e81565b7f9c4e6fd68fbdec6e3075ec7bfba710532af019aea93f5f59ebfe5a9d1a0b894e610aa381610b3c565b610acd7f3c897272fb756004d8a8588422a9ce6e04768b2d705bbde7a87ceb35e9b9c5d983610b50565b505050565b60007f01ffc9a7000000000000000000000000000000000000000000000000000000007bffffffffffffffffffffffffffffffffffffffffffffffffffffffff1916827bffffffffffffffffffffffffffffffffffffffffffffffffffffffff1916149050919050565b610b4d81610b48610c41565b610d3b565b50565b6000610b5c8383610727565b610c3657600160008085815260200190815260200160002060000160008473ffffffffffffffffffffffffffffffffffffffff1673ffffffffffffffffffffffffffffffffffffffff16815260200190815260200160002060006101000a81548160ff021916908315150217905550610bd3610c41565b73ffffffffffffffffffffffffffffffffffffffff168273ffffffffffffffffffffffffffffffffffffffff16847f2f8788117e7eff1d82e926ec794901d17c78024a50270940304540a733656f0d60405160405180910390a460019050610c3b565b600090505b92915050565b600033905090565b6000610c558383610727565b15610d3057600080600085815260200190815260200160002060000160008473ffffffffffffffffffffffffffffffffffffffff1673ffffffffffffffffffffffffffffffffffffffff16815260200190815260200160002060006101000a81548160ff021916908315150217905550610ccd610c41565b73ffffffffffffffffffffffffffffffffffffffff168273ffffffffffffffffffffffffffffffffffffffff16847ff6391f5c32d9c69d2a47ea670b442974b53935d1edc7fd64eb21e047a839171b60405160405180910390a460019050610d35565b600090505b92915050565b610d458282610727565b610d885780826040517fe2517d3f000000000000000000000000000000000000000000000000000000008152600401610d7f92919061168e565b60405180910390fd5b5050565b6000604051905090565b600080fd5b600080fd5b60007fffffffff0000000000000000000000000000000000000000000000000000000082169050919050565b610dd581610da0565b8114610de057600080fd5b50565b600081359050610df281610dcc565b92915050565b600060208284031215610e0e57610e0d610d96565b5b6000610e1c84828501610de3565b91505092915050565b60008115159050919050565b610e3a81610e25565b82525050565b6000602082019050610e556000830184610e31565b92915050565b6000819050919050565b610e6e81610e5b565b82525050565b6000602082019050610e896000830184610e65565b92915050565b610e9881610e5b565b8114610ea357600080fd5b50565b600081359050610eb581610e8f565b92915050565b600060208284031215610ed157610ed0610d96565b5b6000610edf84828501610ea6565b91505092915050565b6000819050919050565b610efb81610ee8565b8114610f0657600080fd5b50565b600081359050610f1881610ef2565b92915050565b600060208284031215610f3457610f33610d96565b5b6000610f4284828501610f09565b91505092915050565b600081519050919050565b600082825260208201905092915050565b60005b83811015610f85578082015181840152602081019050610f6a565b60008484015250505050565b6000601f19601f8301169050919050565b6000610fad82610f4b565b610fb78185610f56565b9350610fc7818560208601610f67565b610fd081610f91565b840191505092915050565b600073ffffffffffffffffffffffffffffffffffffffff82169050919050565b600061100682610fdb565b9050919050565b61101681610ffb565b82525050565b600060408201905081810360008301526110368185610fa2565b9050611045602083018461100d565b9392505050565b61105581610ffb565b811461106057600080fd5b50565b6000813590506110728161104c565b92915050565b6000806040838503121561108f5761108e610d96565b5b600061109d85828601610ea6565b92505060206110ae85828601611063565b9150509250929050565b6000602082840312156110ce576110cd610d96565b5b60006110dc84828501611063565b91505092915050565b600060208201905081810360008301526110ff8184610fa2565b905092915050565b600080fd5b600080fd5b7f4e487b7100000000000000000000000000000000000000000000000000000000600052604160045260246000fd5b61114982610f91565b810181811067ffffffffffffffff8211171561116857611167611111565b5b80604052505050565b600061117b610d8c565b90506111878282611140565b919050565b600067ffffffffffffffff8211156111a7576111a6611111565b5b6111b082610f91565b9050602081019050919050565b82818337600083830152505050565b60006111df6111da8461118c565b611171565b9050828152602081018484840111156111fb576111fa61110c565b5b6112068482856111bd565b509392505050565b600082601f83011261122357611222611107565b5b81356112338482602086016111cc565b91505092915050565b6000806040838503121561125357611252610d96565b5b600061126185828601610f09565b925050602083013567ffffffffffffffff81111561128257611281610d9b565b5b61128e8582860161120e565b9150509250929050565b600080604083850312156112af576112ae610d96565b5b60006112bd85828601610f09565b92505060206112ce85828601611063565b9150509250929050565b7f4e487b7100000000000000000000000000000000000000000000000000000000600052602260045260246000fd5b6000600282049050600182168061131f57607f821691505b602082108103611332576113316112d8565b5b50919050565b60008190508160005260206000209050919050565b60006020601f8301049050919050565b600082821b905092915050565b60006008830261139a7fffffffffffffffffffffffffffffffffffffffffffffffffffffffffffffffff8261135d565b6113a4868361135d565b95508019841693508086168417925050509392505050565b6000819050919050565b60006113e16113dc6113d784610ee8565b6113bc565b610ee8565b9050919050565b6000819050919050565b6113fb836113c6565b61140f611407826113e8565b84845461136a565b825550505050565b600090565b611424611417565b61142f8184846113f2565b505050565b5b818110156114535761144860008261141c565b600181019050611435565b5050565b601f8211156114985761146981611338565b6114728461134d565b81016020851015611481578190505b61149561148d8561134d565b830182611434565b50505b505050565b600082821c905092915050565b60006114bb6000198460080261149d565b1980831691505092915050565b60006114d483836114aa565b9150826002028217905092915050565b6114ed82610f4b565b67ffffffffffffffff81111561150657611505611111565b5b6115108254611307565b61151b828285611457565b600060209050601f83116001811461154e576000841561153c578287015190505b61154685826114c8565b8655506115ae565b601f19841661155c86611338565b60005b828110156115845784890151825560018201915060208501945060208101905061155f565b868310156115a1578489015161159d601f8916826114aa565b8355505b6001600288020188555050505b505050505050565b7f4163636573732044656e69656400000000000000000000000000000000000000600082015250565b60006115ec600d83610f56565b91506115f7826115b6565b602082019050919050565b6000602082019050818103600083015261161b816115df565b9050919050565b7f45766964656e636520646f6573206e6f74206578697374000000000000000000600082015250565b6000611658601783610f56565b915061166382611622565b602082019050919050565b600060208201905081810360008301526116878161164b565b9050919050565b60006040820190506116a3600083018561100d565b6116b06020830184610e65565b939250505056fea264697066735822122037a2950d0d81b664d9b8e6bfa6c4deb10cafdbcf5909fb577c1fbc138f2ee5b264736f6c63430008180033",
    "linkReferences": {},
    "deployedLinkReferences": {}
}